:1000000012C02AC029C028C027C026C025C024C0CD
:1000100023C022C021C020C01FC01EC01DC041C1BE
:100020005DC11AC019C011241FBECFEDCDBF10E0B5
:10003000A0E6B0E0E8E9F4E002C005900D92A03639
:10004000B107D9F710E0A0E6B0E001C01D92A73BD0
:10005000B107E1F7E9D11EC2D3CF969A089582B3D2
:100060008F7A82BB089588B38A7F88BB0895C29A2D
:100070000895C69AC6980895C09AC19821B3207C65
:1000800021BB2AB32C7F2ABBC69AE9B3F0E060B348
:1000900070E0C698AB014270507025E0440F551FC8
:1000A0002A95E1F79B013695322F22273795279520
:1000B0003070422B532B9F0122703070B4E0220F1E
:1000C000331FBA95E1F7422B532B9F0121703070FB
:1000D000A4E0220F331FAA95E1F7422B532B9B017B
:1000E00024703070220F331F422B532B9B0128703A
:1000F000307035952795422B532B9B012071307022
:10010000B3E035952795BA95E1F7422B532B6072F2
:100110007070A5E075956795AA95E1F7462B572B6A
:1001200021B32F6321BB2AB323602ABB009719F0A8
:100130004078507002C04F775070CA01089580E037
:1001400090E09ADF089580FF02C0959A01C09598CB
:10015000982F81FF02C0949A01C0949892FF02C028
:10016000939A01C0939893FF02C0929A01C092980B
:1001700094FF02C0D89A01C0D89895FF02C0D99ABE
:1001800001C0D99896FF02C0919A01C0919887FF4B
:1001900002C0909A089590980895C098C198D3DFAE
:1001A00068DF08958FEF90E7A2E081509040A04073
:1001B000E1F700C0000057DF8DE090E0EEDFAFEC2C
:1001C000B7E01197F1F700C0000088E390E0E5DFA9
:1001D0000895EF92FF920F931F93CF93DF937C01CB
:1001E0008B01C098C198C0E0D0E00EC08FEC97E0C2
:1001F0000197F1F700C0000088E1A5DF01151105A6
:1002000009F0939A36DF2196CE15DF057CF3DF9156
:10021000CF911F910F91FF90EF90089581E090E0B2
:100220002BDF0097D9F70895CF93DF93EC01F6DF2A
:10023000CE018068B2DFDF91CF910895EFDF82E0D9
:1002400090E0ABDF0895EADF81E090E0A6DF08955B
:10025000CF93DF930F92CDB7DEB78983DFDFC098EE
:10026000C19A898170DF05DF0F90DF91CF910895EA
:1002700080E090E0FC01EF59FF4F1082019683353A
:100280009105C1F70895880F8093B40087B3806A01
:1002900087BBC79AC59ABD9888EA8DB980EF8EB999
:1002A00008951F920F920FB60F9211248F93109200
:1002B000B6001092B500BD98B79B02C0B59BFCCFAD
:1002C000B59902C088EF01C088EA8DB980EF8EB978
:1002D0008F910F900FBE0F901F9018951F920F9245
:1002E0000FB60F9211242F933F938F939F93EF9309
:1002F000FF938091B5009091B6008230910509F48A
:1003000051C08330910538F4009789F08130910510
:1003100009F07FC02DC08430910509F44CC08430B1
:10032000910500F18530910509F073C04DC08FB182
:10033000882349F08FB12091B40090E08E7F30E0A7
:100340008217930791F4789B03C081E090E059C035
:1003500084E090E09093B6008093B5008FEF809397
:10036000600053C08FB1882319F088EA8DB92AC084
:10037000809160008F3F11F410926000E091600066
:10038000F0E0EF59FF4F80818FB9809160008F5F5F
:100390008093600082E090E09093B6008093B50077
:1003A000BD9A10C083E090E09093B6008093B500B2
:1003B0001FB8BD982CC085E090E09093B600809364
:1003C000B500BD9880E724C08FB1909160009F3F39
:1003D00029F4833590F48093600011C0E0916000AF
:1003E000F0E0EF59FF4F8083809160008F5F809332
:1003F000600080916000833510F01092600084E00E
:1004000090E09093B6008093B5001FB8BD9A8EE738
:100410008EB9FF91EF919F918F913F912F910F9006
:100420000FBE0F901F901895F89487B38F6587BB08
:1004300081B38F6781BB8AB383608ABB86E023DF89
:100440007894B0DE00DF14DF8091B3008823E1F3FD
:1004500080916100823029F08330A1F08130A1F7D2
:10046000F1CF8091B20090E0DFDEC1E003C0808177
:10047000EFDECF5FEC2FF0E0EF59FF4F8081882354
:10048000B1F7E1CF80916200882311F0ECDDDBCF82
:08049000EEDDD9CFF894FFCF97
:00000001FF
