:100000000EC028C027C026C025C024C023C022C0DF
:1000100021C020C01FC01EC01DC029C145C1112460
:100020001FBECFE5D1E0DEBFCDBF10E0A0E6B0E05F
:10003000E4E6F4E002C005900D92A036B107D9F7CE
:1000400010E0A0E6B0E001C01D92A53DB107E1F7C8
:10005000C6D106C2D5CFC19AC19808951F93CF9338
:10006000DF930F92CDB7DEB710E004C08983F3DFD2
:100070001F5F89811817D1F70F90DF91CF911F91E2
:1000800008950F931F93CF93DF93082FC498E3DF56
:10009000C0E0D0E010E0C8010C2E02C09595879515
:1000A0000A94E2F780FF02C0C49A01C0C498D3DF6B
:1000B0002196C830D10579F7C49ACDDFDF91CF9171
:1000C0001F910F910895CF93DF930F92CDB7DEB7B5
:1000D000805C6983D6DF6981862FD3DF0F90DF9143
:1000E000CF9108958FEC97E00197F1F700C00000E1
:1000F000C49A8AE0B3DF8BE1C4DF8BE1C2DF8BE11E
:10010000C0DF8EE1ABDF8FE160E0DDDF1092CA007F
:100110001092CC001092CE008FE08093CB008093A1
:10012000CD008093CF0086E98093D0001092D1005B
:100130000895D8DFC1986091CA0080E0C4DF609163
:10014000CB0081E0C0DF6091CC0082E0BCDF609139
:10015000CD0083E0B8DF6091CE0084E0B4DF609131
:10016000CF0085E0B0DF089588E08BDF86E176DFA1
:10017000089580E186DF86E171DF0895CF93DF93F4
:1001800082E07FDF8CE26ADFC0E0D0E064DF20E065
:1001900030E040E0C19A86B386958695869590E0DA
:1001A00081709070022E02C0880F991F0A94E2F7A6
:1001B000482BC1982F5F3F4F2830310559F7FE017A
:1001C000ED59FF4F408347DF2196C636D105F1F642
:1001D000DF91CF910895CF93DF9380E090E0C0E06E
:1001E000D0E060E070E040E050E0FC01ED59FF4FEE
:1001F000A081FC01EC59FF4FB081FC01EB59FF4F8E
:100200002081FC01EA59FF4FE08130E02B0F311DC6
:100210002A0F311D2E0F311D3695279536952795BE
:10022000C217D30710F4E901452F620F731F5F5FF8
:1002300004965931D1F6CB0169E170E0FDD0625EE0
:100240007F4F6C177D0708F040E0842FDF91CF913E
:100250000895880F8093D20087B3856087BBC29AC8
:10026000C09AB89888EA8DB980EF8EB908951F9228
:100270000F920FB60F9211248F931092D400109208
:10028000D300B898B29B02C0B09BFCCFB09902C01B
:1002900088EF01C088EA8DB980EF8EB98F910F90F9
:1002A0000FBE0F901F9018951F920F920FB60F92CE
:1002B00011242F933F938F939F93EF93FF938091FC
:1002C000D3009091D4008230910509F451C083305D
:1002D000910538F4009789F08130910509F074C0D8
:1002E0002DC08430910509F44CC08430910500F193
:1002F0008530910509F068C04DC08FB1882349F061
:100300008FB12091D20090E08E7F30E0821793076A
:1003100091F4789B03C081E090E04EC084E090E0CF
:100320009093D4008093D3008FEF8093600048C0F7
:100330008FB1882319F088EA8DB92AC080916000B6
:100340008F3F11F410926000E0916000F0E0ED59F1
:10035000FF4F80818FB9809160008F5F8093600034
:1003600082E090E09093D4008093D300B89A10C0BC
:1003700083E090E09093D4008093D3001FB8B898A6
:1003800021C085E090E09093D4008093D300B8988A
:1003900080E719C08FB1909160009F3F49F0E091D4
:1003A0006000F0E0E653FF4F8083809160008F5F34
:1003B0008093600084E090E09093D4008093D30019
:1003C0001FB8B89A8EE78EB9FF91EF919F918F91E8
:1003D0003F912F910F900FBE0F901F901895F8949A
:1003E000B99ABB98BC9A85E034DF7894A2DE8091FC
:1003F000D0009091D100D92F20E0C22F90E08C2B1B
:100400009D2B9093620080936100AEDE809161002D
:1004100090916200969587959695879505C02AE0FC
:100420002A95F1F700C001970097C9F7A2DEA6DE72
:10043000D2DE8093C900DBCFAA1BBB1B51E107C0F2
:10044000AA1FBB1FA617B70710F0A61BB70B881F64
:10045000991F5A95A9F780959095BC01CD010895F3
:04046000F894FFCF3E
:00000001FF
