:100000000C9475010C949D010C949D010C949D0120
:100010000C949D010C949D010C949D010C949D01E8
:100020000C949D010C949D010C945A050C94E105CF
:100030000C949D010C949D010C949D010C949D01C8
:100040000C949D010C949D010C949D010C949D01B8
:100050000C949D010C949D010C949D010C9419022B
:100060000C949D010C949D010C949D010C949D0198
:100070000C949D010C949D010C949D010C949D0188
:100080000C949D010C949D010C949D010C949D0178
:100090000C949D010C949D010C949D010C949D0168
:1000A0000C949D010C949D010C949D010000000096
:1000B000240027002A002D00300000000000250049
:1000C00028002B002E003100000000002300260035
:1000D00029002C002F000404040404030405020278
:1000E00002020403020202020606060606060404D1
:1000F00002020204040802011040804010204080E7
:10010000408008020401804020100201108010206D
:1001100040400000000200080E0000030401000B34
:1001200000000000000000000000000000000000CF
:10013000070605040100080A0B0C0D090403090455
:100140002203410072006400750069006E006F00B8
:1001500020004C0065006F006E00610072006400BA
:100160006F001803410072006400750069006E00A2
:100170006F0020004C004C00430012010002000000
:1001800000404123368000010102000112010002FB
:10019000020000404123368000010102000100C13D
:1001A0008081C1080B000202020100090400000165
:1001B00002020000052400100105240101010424AD
:1001C000020605240600010705810310004009040A
:1001D0000100020A000000070502024000000705B6
:1001E000830240000005010902A1010901A1008567
:1001F00001050919012903150025019503750181E0
:100200000295017505810305010930093109381589
:1002100081257F750895038106C0C005010906A1E7
:10022000018502050719E029E715002501750195EB
:10023000088102950175088103950675081500254A
:10024000650507190029658100C009040200010342
:100250000000000921010100012265000705840357
:1002600040000100000000000000002A2B280000D0
:10027000000000000000000000000000000000007E
:100280000000002C9EB4A0A1A2A434A6A7A5AE365F
:100290002D3738271E1F20212223242526B333B6CD
:1002A0002EB7B89F8485868788898A8B8C8D8E8FA0
:1002B000909192939495969798999A9B9C9D2F31A3
:1002C00030A3AD350405060708090A0B0C0D0E0F07
:1002D000101112131415161718191A1B1C1DAFB183
:1002E000B0B5000096047407790811241FBECFEF43
:1002F000DAE0DEBFCDBF11E0A0E0B1E0E8E6F3E177
:1003000002C005900D92A233B107D9F711E0A2E324
:10031000B1E001C01D92A63AB107E1F712E0CAEEC2
:10032000D2E004C02297FE010E94AE09C43ED1076C
:10033000C9F70E94D0030C94B2090C9400000F93EB
:100340001F931092320107E011E060C01092340157
:10035000009333014CC080913401882359F18DE022
:1003600061E00E949D03E0913201FF27E7FDF095D7
:10037000E050FF4F808190E00090330102C09595DE
:1003800087950A94E2F780FD05C064E670E080E09E
:1003900090E004C06CE271E080E090E00E946102B5
:1003A0008DE060E00E949D0364E670E080E090E0F4
:1003B0000E946102809134018823A1F4E09132010E
:1003C000FF27E7FDF095E050FF4F808190E000901F
:1003D000330102C0959587950A94E2F7892B11F0B5
:1003E00010933401809133018150809333018091C7
:1003F000330187FFB0CF6CE271E080E090E00E94B3
:100400006102809132018F5F8093320180913201CD
:10041000883008F49BCF6CEB72E080E090E00E94A3
:1004200061021F910F9108958DE061E00E94100319
:1004300008951F920F920FB60F9211242F933F939E
:100440008F939F93AF93BF938091390190913A011D
:10045000A0913B01B0913C0130913D010196A11D5D
:10046000B11D232F2D5F2D3720F02D570196A11D93
:10047000B11D20933D018093390190933A01A093DF
:100480003B01B0933C018091350190913601A091E0
:100490003701B09138010196A11DB11D809335013E
:1004A00090933601A0933701B0933801BF91AF917B
:1004B0009F918F913F912F910F900FBE0F901F90A2
:1004C00018959B01AC017FB7F8948091350190910C
:1004D0003601A0913701B091380166B5A89B05C0DF
:1004E0006F3F19F00196A11DB11D7FBFBA2FA92F33
:1004F000982F8827860F911DA11DB11D62E0880FDE
:10050000991FAA1FBB1F6A95D1F7BC012DC0FFB769
:10051000F8948091350190913601A0913701B09106
:100520003801E6B5A89B05C0EF3F19F00196A11D63
:10053000B11DFFBFBA2FA92F982F88278E0F911DAD
:10054000A11DB11DE2E0880F991FAA1FBB1FEA95EC
:10055000D1F7861B970B885E9340C8F2215030403C
:100560004040504068517C4F2115310541055105EF
:1005700071F60895789484B5826084BD84B58160F5
:1005800084BD85B5826085BD85B5816085BDEEE69B
:10059000F0E0808181608083E1E8F0E0108280817A
:1005A00082608083808181608083E0E8F0E08081E8
:1005B00081608083E1E9F0E08081826080838081D6
:1005C00081608083E0E9F0E0808181608083E1ECFC
:1005D000F0E080818460808380818260808380817C
:1005E00081608083E3ECF0E0808181608083E0ECD7
:1005F000F0E0808182608083E2ECF0E080818160C5
:100600008083EAE7F0E0808184608083808182607B
:100610008083808181608083808180688083089569
:10062000CF93DF93482F50E0CA018C509F4FFC01BD
:1006300034914A525F4FFA018491882369F190E026
:10064000880F991FFC01E455FF4FA591B491FC015F
:10065000E654FF4FC591D491662351F42FB7F89417
:100660008C91932F909589238C93888189230BC03B
:10067000623061F42FB7F8948C91932F9095892371
:100680008C938881832B88832FBF06C09FB7F894F3
:100690008C91832B8C939FBFDF91CF9108958830ED
:1006A00071F1893068F4823031F1833020F4813087
:1006B00009F042C01DC0833089F08430E9F512C0D2
:1006C0008B3059F18C3028F48930E9F08A30A1F56B
:1006D0001EC08C3031F18E3079F529C080918000B8
:1006E0008F7703C0809180008F7D80938000089574
:1006F00084B58F7702C084B58F7D84BD08958091C5
:1007000090008F7707C0809190008F7D03C080910B
:100710009000877F8093900008958091C0008F772C
:1007200003C08091C0008F7D8093C00008958091A8
:10073000C200877F8093C2000895FF920F931F939A
:10074000F62E482F50E0CA018E5E9E4FFC01249188
:10075000CA018C509F4FFC0114914A525F4FFA011D
:1007600004910023C9F0222319F0822F0E944F0325
:10077000E02FF0E0EE0FFF1FE654FF4FA591B4917C
:100780009FB7F894FF2021F48C911095812302C02B
:100790008C91812B8C939FBF1F910F91FF90089597
:1007A000CF93DF930E94BA0286E491E00E949704FF
:1007B0000E941402C0E0D0E00E949F012097E1F364
:1007C0000E940000F9CF282F809140018823C1F0BA
:1007D00057FF1AC015C0289890933F018091F100EF
:1007E0008193E217F307B9F74115510539F080916C
:1007F000F200882319F48BE68093E800AFBF02C0B3
:100800004FEF5FEFCA010895AFB7F89427702093B8
:10081000E9008091F200282F30E0241735070CF40E
:10082000A901FB019B01240F311D94E6DACFDF9370
:10083000CF930F92CDB7DEB7BE016F5F7F4F41E020
:1008400050E00E94E303019719F02FEF3FEF03C040
:100850008981282F30E0C9010F90CF91DF91089551
:10086000FF920F931F93F82E142F052F40914301F1
:1008700050914401212F302FC901DC01FB016EEFA3
:1008800029C0F7FE02C0949101C0908120914101DE
:100890003091420124173507ACF48091E80085704F
:1008A000E1F38091E80082FF03C02FEF3FEF17C014
:1008B0009093F100C90101968F739070892B11F408
:1008C0006093E8002F5F3F4F309342012093410136
:1008D000119731961097A9F6812F902F9C01C9018D
:1008E0001F910F91FF9008959C018091E80082FF75
:1008F000FCCFF901260F311D03C08091F1008193D7
:10090000E217F307D1F7289884E680933F018BEF35
:100910008093E800CB0108958093E9008091F20074
:10092000882319F08AE38093E800089508951092CF
:10093000400181E08093D70080EA8093D80082E173
:1009400089BD09B400FEFDCF61E070E080E090E079
:100950000E94610280E98093D8008CE08093E200DD
:100960001092E000559A209A08955F926F927F92BC
:100970008F929F92AF92BF92CF92DF92EF92FF92AF
:100980000F931F93CF93DF93E82E842E752E8091C3
:100990004001882371F18B01242F352FC901EC010F
:1009A0007AEFF72E67E0962E9E2050E4552E8E2D7E
:1009B00090E040E2A42EB12CA822B9223AE3632EA3
:1009C00020E4C22ED12CC822D92258C09FB7F89457
:1009D0009092E9008091E80085FD02C020E004C00B
:1009E0008091F200252D281B9FBF222361F4FA94E9
:1009F00019F42FEF3FEF4DC061E070E080E090E030
:100A00000E9461023BC0822F90E0C817D9070CF406
:100A10002C2FC21BD1094FB7F8949092E900A11472
:100A2000B10421F406C01092F10021502223D9F71D
:100A300019C0E7FC03C0F801922F10C0C801322F83
:100A400006C0FC010196E491E093F100315033239C
:100A5000C1F706C081918093F10091509923D1F79D
:100A6000020F111D8091E80085FF05C0209729F431
:100A7000C114D10411F06092E8004FBF209709F033
:100A8000A5CF5D9884E680933E01282D372DC901BE
:100A90009C01C901DF91CF911F910F91FF90EF90C1
:100AA000DF90CF90BF90AF909F908F907F906F908E
:100AB0005F9008951F920F920FB60F9211242F93FB
:100AC0003F934F935F936F937F938F939F93AF93D6
:100AD000BF93EF93FF938091E1001092E100982F74
:100AE00083FF0FC01092E90081E08093EB00109229
:100AF000EC0082E38093ED001092400188E0809347
:100B0000F00092FF34C083E08093E9008091F2000E
:100B1000882319F08AE38093E8008FB7F89492E075
:100B20009093E9009091F2008FBF992321F08BE818
:100B300091E00E94B70780913E01882351F0809197
:100B40003E01815080933E0180913E01882309F44B
:100B50005D9A80913F01882351F080913F0181503F
:100B600080933F0180913F01882309F4289AFF91E7
:100B7000EF91BF91AF919F918F917F916F915F9115
:100B80004F913F912F910F900FBE0F901F9018958E
:100B90000F931F93DF93CF930F92CDB7DEB71982D8
:100BA0008E010F5F1F4FC8010E94DD07C8010E9420
:100BB0007609898190E00F90CF91DF911F910F917D
:100BC00008951F920F920FB60F921124EF92FF9289
:100BD0001F932F933F934F935F936F937F938F93C5
:100BE0009F93AF93BF93EF93FF93DF93CF93CDB7D3
:100BF000DEB76197DEBFCDBF1092E9008091E800BB
:100C000083FF0FC1FE0131969E01275F3F4F03C056
:100C10008091F1008193E217F307D1F7289884E6D9
:100C200080933F0182EF8093E800998197FF05C090
:100C30008091E80080FFFCCF03C08EEF8093E80036
:100C4000292F30E0C90180769070892B09F0C2C04D
:100C50008A81882329F41092F1001092F100D6C005
:100C6000813009F4D3C0833009F4D0C0853049F411
:100C70008091E80080FFFCCF8B8180688093E30047
:100C8000C5C0863009F07CC01C81EF80F88412302A
:100C9000C1F51092E90010924201109241011092A8
:100CA0004401109243010E94C80599E0FE01399663
:100CB000DF01292F1D922A95E9F799871A8791E07C
:100CC0009E8790E8988B9AEF998B20914101309103
:100CD0004201275F3F4F3C872B878D871092E900A9
:100CE0001092420110924101F0924401E0924301BE
:100CF00080E0BF0149E050E00E9430040E94C80536
:100D000085C01092E9001092420110924101F092C8
:100D10004401E0924301123241F482E290E00E94E9
:100D20006E09892B09F476C071C0113079F488E01E
:100D3000E816F10419F481E08093450180914501A2
:100D4000882309F06BC0EAE7F1E013C0133009F023
:100D500061C08B81882319F4ECE3F1E00AC0823092
:100D600019F4E0E4F1E005C0813009F053C0E2E697
:100D7000F1E0449180E8BF0150E00E94300446C099
:100D8000873009F447C0883021F481E08093F10076
:100D90003DC08930D9F523703070232BD9F5EFE9A8
:100DA000F1E091E031E026E39093E9003093EB002D
:100DB00084918093EC002093ED009F5F31969530F5
:100DC00099F78EE78093EA001092EA008B81809376
:100DD00040011CC08F8198851092E9001092420159
:100DE0001092410190934401809343018D818823A7
:100DF00029F4CE0101960E94E90706C0823051F421
:100E0000CE0101960E943F08882321F08EEF809347
:100E1000E80007C081E28093EB0003C0ECE8F1E05A
:100E2000A8CF6196DEBFCDBFCF91DF91FF91EF914B
:100E3000BF91AF919F918F917F916F915F914F91F2
:100E40003F912F911F91FF90EF900F900FBE0F9049
:100E50001F90189520918701309188018091890118
:100E600090918A01281B390B2F733070C9010895A6
:100E700020918701309188018091890190918A01A8
:100E80002817390719F42FEF3FEF09C0E0918901C6
:100E9000F0918A01E95BFE4F8081282F30E0C90183
:100EA0000895209187013091880180918901909166
:100EB0008A012817390719F42FEF3FEF13C0E0918B
:100EC0008901F0918A01E95BFE4F208180918901BF
:100ED00090918A0101968F73907090938A0180930C
:100EE000890130E0C901089510928E0110928D01A0
:100EF00088EE93E0A0E0B0E080938F0190939001A2
:100F0000A0939101B093920186E191E090938C01BE
:100F100080938B0108950F931F93DF93CF930F92CC
:100F2000CDB7DEB78C01698380910F01882369F00A
:100F300083E0BE016F5F7F4F41E050E00E94B50447
:100F40001816190614F49C0107C081E090E0F8011E
:100F50009383828320E030E0C9010F90CF91DF912D
:100F60001F910F91089583E00E948C040895CF9300
:100F7000DF9312C082E00E9417042FEF8F3F920789
:100F8000C9F0E0918701F0918801E95BFE4F808311
:100F9000D0938801C0938701C0918701D0918801C7
:100FA0002196CF73D0708091890190918A01C817E2
:100FB000D90701F7DF91CF910895FC0180818E5F01
:100FC000808380E863EA71E042E450E00E943004EC
:100FD0000895FC0181819081913A59F4813209F0A0
:100FE0004CC080E068E071E047E050E00E943004CF
:100FF00042C0913209F041C0803239F488E091E07A
:1010000067E070E00E94740436C0823209F035C097
:10101000828180930F018091080190910901A09134
:101020000A01B0910B01805B9440A040B04019F5DB
:1010300080910F0180FD12C087E797E79093010828
:10104000809300082BE088E190E00FB6F894A89513
:10105000809360000FBE209360000DC088E10FB642
:10106000F89480936000109260000FBEA8951092D3
:1010700001081092000881E0089580E00895FC01C5
:1010800091818081813A31F4913089F080E0933010
:1010900089F40DC0813269F49B3021F48281809300
:1010A000100105C09A3029F482818093110181E0FA
:1010B000089580E00895EF92FF920F931F938C01A3
:1010C000E62EDC01ED91FC910480F581E02D09957F
:1010D000F82ED801ED91FC910680F781E02DC80132
:1010E0006E2D09958F2D90E01F910F91FF90EF903D
:1010F00008951092990110929D0110929C0188E22E
:1011000091E090939B0180939A010895EF92FF9252
:101110000F931F93DF93CF930F92CDB7DEB78983E1
:101120008B017A0184E0BE016F5F7F4F41E050E0A8
:101130000E94B50484E4B801A7010E94B5040F9091
:10114000CF91DF911F910F91FF90EF90089582E072
:1011500048E050E00E9486080895FC01168217823C
:10116000108611861286138614823496BF010E945F
:10117000A7080895DC01683810F0685829C0E62FE8
:10118000F0E067FF13C0E058F04081E090E002C05B
:10119000880F991FEA95E2F7809514962C91149781
:1011A000282314962C93149760E012C0ED59FD4F3C
:1011B0006491662319F420E030E01DC067FF08C089
:1011C00014968C9114978D7F14968C9314976F7747
:1011D000FD0190E0662321F08681861709F41682CE
:1011E0009F5F31969630B1F7CD011496BD010E94F4
:1011F000A70821E030E0C9010895CF93DF93DC0117
:10120000683810F0685825C0E62FF0E067FF12C07C
:10121000E058F04081E090E002C0880F991FEA9505
:10122000E2F714962C911497282B14962C9314976C
:1012300060E00FC0ED59FD4F64916623D9F167FF5F
:1012400008C014968C911497826014968C9314970E
:101250006F7716968C9116978617A9F117968C9131
:101260001797861781F118968C911897861759F160
:1012700019968C911997861731F11A968C911A97B5
:10128000861709F11B968C911B978617E1F0ED01EB
:10129000E0E0F0E09E2F8E81882321F4EA0FFB1F0F
:1012A000668306C09F5F31962196E630F10591F77F
:1012B000963049F481E090E013969C938E931297B8
:1012C00020E030E007C0CD011496BD010E94A708C0
:1012D00021E030E0C901DF91CF91089580E865EE0B
:1012E00071E045E650E00E9430040895FC018081E1
:1012F0008F5F808380E86AE472E049E150E00E94F9
:1013000030040895CF92DF92EF92FF920F931F93D4
:10131000CF93DF937C016B018A01C0E0D0E00FC066
:10132000D6016D916D01D701ED91FC910190F08195
:10133000E02DC7010995C80FD91F015010400115B4
:10134000110571F7CE01DF91CF911F910F91FF90A1
:10135000EF90DF90CF900895EE0FFF1F0590F4916E
:08136000E02D0994F894FFCF81
:101368000A0F180F160F141B00E100000000000000
:101378000101000000008B0782092A07510738077E
:10138800B307B707000000005B088209FD08BA0828
:107000005FC0000078C0000076C0000074C00000BF
:1070100072C0000070C000006EC000006CC00000B4
:107020006AC0000068C00000C9C4000064C000005D
:1070300062C0000060C000005EC000005CC00000D4
:107040005AC00000E4C0000056C0000054C0000058
:1070500052C0000050C000004EC000004CC00000F4
:107060004AC0000048C0000046C0000044C0000004
:1070700042C0000040C000003EC000003CC0000014
:107080003AC0000038C0000036C0000034C0000024
:1070900032C0000030C000002EC000002CC0000034
:1070A0002AC0000028C0000026C00000493E623E01
:1070B000063F623E063F973EB93E063FD93EEB3E55
:1070C00011241FBECFEFDAE0DEBFCDBF11E0A0E09C
:1070D000B1E0E6E9FEE702C005900D92A63AB107DD
:1070E000D9F721E0A6EAB1E001C01D92AC3BB2079E
:1070F000E1F75ED3CEC684CF84E08093E90080912F
:10710000E80085FD0EC08091E8008B778093E80051
:107110008091E80082FDF3CF8EB38111F9CF80E03A
:1071200008958091F100089593E09093E900909183
:10713000E80095FF0AC08093F1005D9884E690E036
:107140009093AB018093AA0108959091E8009E77F7
:107150009093E8009091E80090FDEDCF9EB39111DF
:10716000F9CF0895F89410926F0010928100109258
:1071700085001092840081E085BF15BE47985D9A16
:10718000289A0C94000008958091B0019091B1016B
:1071900001969093B1018093B001292F97FF02C00F
:1071A0002EEF291B220F281710F447980895479AAD
:1071B000089584B7877F84BF88E10FB6F8948093E1
:1071C0006000109260000FBE90E080E80FB6F89467
:1071D00080936100909361000FBE81E085BF82E0E3
:1071E00085BF3F9A209A559AE1E6F0E090E89083B7
:1071F000108247985D9A289A109289009AEF90938E
:10720000880080936F0083E080938100BFC31F924A
:107210000F920FB60F9211242F938F939F93EF939A
:10722000FF9310928500109284008091AA019091A2
:10723000AB01009741F001979093AB018093AA01B5
:10724000892B09F45D9A8091A8019091A90100977A
:1072500041F001979093A9018093A801892B09F42B
:10726000289AE0E0F0E085919491019649F08091B0
:10727000A6019091A70101969093A7018093A60182
:10728000FF91EF919F918F912F910F900FBE0F90D3
:107290001F90189542E061EC82E00BD342E161E877
:1072A00083E007D342E160E884E003C38091B40146
:1072B000982F9F77913239F59091B501903291F0E6
:1072C000913209F5813AF9F48091E800877F809343
:1072D000E80067E070E083E091E021D48091E8006D
:1072E0008B770FC0813279F48091E800877F80939B
:1072F000E80067E070E083E091E06AD48091E80004
:107300008E778093E80008954F925F926F927F92FC
:107310008F929F92AF92BF92CF92DF92EF92FF92A5
:10732000CF93DF9384E08093E9008091E80082FFAF
:1073300030C2289884E690E09093A9018093A80138
:10734000DBDED82F853481F48CE49DE19093A70196
:107350008093A60107B600FCFDCFF999FECF81E12D
:1073600080935700E89503C0843521F4C5DE8DE095
:10737000DBDEE6C18C34D9F38035C9F3843721F4E0
:1073800084E4D2DE80E0F4CF813611F489E5F0CFD9
:10739000813491F4B1DEC82FAFDE90E0880F991FE1
:1073A0002C2F30E0322F2227330F822B932BAA274A
:1073B00097FDA095BA2F98C1803711F483E5D8CFF7
:1073C000833549F4CCE9D1E08991AEDE21E0C33ABE
:1073D000D207D1F7B5C1863521F481E3A5DE80E37C
:1073E000C7CF833731F487E89FDE85E99DDE8EE1E4
:1073F000BFCF8536B9F4E0E0F0E083E095E080931C
:107400005700E89507B600FCFDCF90935700E8952C
:1074100007B600FCFDCFE058FF4FE11520E7F2076B
:1074200071F7A5CF823719F4E1E0F0E00EC08634A1
:1074300019F4E0E0F0E009C08E3419F4E3E0F0E084
:1074400004C0813539F4E2E0F0E089E08093570030
:1074500084918ECF823631F489E566DE80E064DE89
:1074600080E886CF823419F0873609F0D5C01092B3
:10747000A7011092A60140DED82E3EDEE82E3CDEAB
:10748000C82F8BEB8C0F823010F08FE371CFF12C73
:10749000FD2810926F00D73609F045C081E1809336
:1074A0005700E8955701912CD1E0A114B10409F4DB
:1074B000AFC0C090AC01D090AD01E090AE01F090B3
:1074C000AF01C634B9F4E92DF0E0EC29FD2984912F
:1074D0002BDE992069F082E0C80ED11CE11CF11C62
:1074E000C092AC01D092AD01E092AE01F092AF013A
:1074F0009D2615C0D701C601B695A7959795879586
:10750000B2D412DEE2E0CE0ED11CE11CF11CC0921E
:10751000AC01D092AD01E092AE01F092AF01F1E08A
:10752000AF1AB108C2CF8090AC019090AD01A0908D
:10753000AE01B090AF01C63421F0C12CD12CD1E006
:1075400030C083E0F40180935700E89507B600FC53
:10755000FDCFF3CFC63461F5DD2039F14090AC01A9
:107560005090AD016090AE017090AF01C5DD2C2D43
:1075700030E0382BF2010901D0935700E89511242F
:10758000F2E04F0E511C611C711C4092AC015092F4
:10759000AD016092AE017092AF01DD2621E0E21AEA
:1075A000F108E114F104B1F627C0A6DDC82EF5CF2D
:1075B000A3DD682F8091AC019091AD01A091AE0147
:1075C000B091AF01B695A7959795879554D4409102
:1075D000AC015091AD016091AE017091AF014E5F71
:1075E0005F4F6F4F7F4F4093AC015093AD0160935D
:1075F000AE017093AF01D2CFC63441F485E0F401FF
:1076000080935700E89507B600FCFDCF8DE08CDD38
:1076100082E080936F0094C0833471F4C091AC0118
:10762000D091AD0169DD90E021E0FE010C012093D5
:107630005700E89511249BCE833601F5C090AC012C
:10764000D090AD01E090AE01F090AF0155DDF601B4
:10765000E16090E021E00C0120935700E8951124AF
:10766000F2E0CF0ED11CE11CF11CC092AC01D09213
:10767000AD01E092AE01F092AF0179CE8D3661F4AA
:10768000E091AC01F091AD0185E080935700E89561
:1076900007B600FCFDCF6BCE823551F4E091AC0112
:1076A000F091AD01C591D4918D2F3EDD8C2F60CE30
:1076B000843419F521DD682F8091AC019091AD01E2
:1076C000A091AE01B091AF01B695A795979587951A
:1076D000D2D38091AC019091AD01A091AE01B09157
:1076E000AF010296A11DB11D8093AC019093AD0135
:1076F000A093AE01B093AF013ACE8436F1F4C090BE
:10770000AC01D090AD01E090AE01F090AF01D70197
:10771000C601B695A79597958795A5D305DD22E077
:10772000C20ED11CE11CF11CC092AC01D092AD0183
:10773000E092AE01F092AF0103C08B3109F0A5CE0B
:1077400083E08093E9009091E8008091E8008E77D3
:107750008093E80095FD11C08091E80080FD04C091
:107760008EB38111F9CF15C08091E8008E77809398
:10777000E80003C08EB3882361F08091E80080FFA9
:10778000F9CF84E08093E9008091E8008B778093C3
:10779000E800DF91CF91FF90EF90DF90CF90BF9006
:1077A000AF909F908F907F906F905F904F900895D3
:1077B0008091000890910108109201081092000831
:1077C00044B714BE28E10FB6F894209360001092DD
:1077D00060000FBE41FD1AC040FF09C0E0E0F0E0CC
:1077E000259134912F3F3F4F11F0BCDC0FC043FF78
:1077F0000DC020910001309101018217930731F0F3
:10780000E0E0F0E085919491019679F7D2DC7894EC
:107810001092A7011092A60180910201882369F0BD
:1078200073DD0AD38091A6019091A70181349F4115
:1078300010F010920201A8DCEFCF8091E00081608F
:107840008093E0008FDC80E090E00895292F30E005
:107850002230310539F02330310549F0213031052E
:1078600061F410C08EE390E02CE431E01EC0882368
:1078700071F0813089F08230A1F080E090E020E06A
:1078800030E013C082E190E02AE831E00EC084E0ED
:1078900090E028E431E009C082E290E024E231E0A7
:1078A00004C088E190E02AE031E0FA0131832083CE
:1078B00008958093E900EBEEF0E0808181608083A1
:1078C000EDEEF0E010826093EC0040838091EE00DA
:1078D000881F8827881F08958091B40187FD05C0FF
:1078E0008091E80080FF0DC010C08091E80082FD0B
:1078F00004C08EB38111F9CF08958091E8008B7791
:1079000007C08EB38111ECCF08958091E8008E7787
:107910008093E80008950F931F93CF93DF9341D096
:1079200048D0C8EDD0E088818F77888388818068CF
:10793000888388818F7D888319BC1EBA1092B2011A
:1079400000EE10E0F80180818B7F80838881816068
:10795000888342E060E080E0ACDFE1EEF0E080812F
:107960008E7F8083E2EEF0E0808181608083808181
:1079700088608083F80180818E7F80838881806128
:107980008883DF91CF911F910F910895E7EDF0E08B
:107990008081816080838AE482BF81E08093B3012B
:1079A000BACFE8EDF0E080818E7F80831092E20014
:1079B00008951092DA001092E10008951F920F923C
:1079C0000FB60F9211242F933F934F935F936F93B2
:1079D0007F938F939F93AF93BF93EF93FF93809188
:1079E000DA0080FF1BC08091D80080FF17C0809113
:1079F000DA008E7F8093DA008091D90080FF0BC07F
:107A000080E189BD82E189BD09B400FEFDCF81E03E
:107A10008EBB11D203C019BC1EBA0DD28091E100F9
:107A200080FF17C08091E20080FF13C08091E200C8
:107A30008E7F8093E2008091E20080618093E2007B
:107A40008091D80080628093D80019BC85E08EBBFD
:107A5000F2D18091E10084FF2CC08091E20084FF8C
:107A600028C080E189BD82E189BD09B400FEFDCF57
:107A70008091D8008F7D8093D8008091E1008F7E27
:107A80008093E1008091E2008F7E8093E2008091FC
:107A9000E20081608093E2008091B201811104C014
:107AA0008091E30087FF02C084E001C081E08EBBCB
:107AB000C2D18091E10083FF21C08091E20083FF69
:107AC0001DC08091E100877F8093E10082E08EBB42
:107AD0001092B2018091E1008E7F8093E10080914D
:107AE000E2008E7F8093E2008091E20080618093CB
:107AF000E20042E060E080E0DCDE9DD1FF91EF91AA
:107B0000BF91AF919F918F917F916F915F914F91B5
:107B10003F912F910F900FBE0F901F9018952091BD
:107B2000BA013091BB012617370748F0611571057E
:107B300039F42091E8002E772093E80001C0B901C4
:107B4000FC0120E061157105A1F18EB38823E1F1FC
:107B50008530E1F18091E80083FD34C08091E80038
:107B600082FF06C08091E80082FF26C080E0089571
:107B70008091E80080FFE6CF2091F3008091F20031
:107B800090E0922B6115710551F08830910538F421
:107B900021912093F100615071090196F3CF21E00A
:107BA000089709F020E08091E8008E778093E80044
:107BB000C9CF2111CACFD6CF8EB3882329F0853003
:107BC00089F604C081E0089582E0089583E0089575
:107BD0006115710529F42091E8002B772093E800C6
:107BE0006115710531F12EB3222361F1253061F168
:107BF0002091E80023FD22C02091E80022FFF3CF6E
:107C0000FC01CF014091F3002091F20030E0342BD1
:107C1000232B09F38091F1008193CF016150710909
:107C20006115710571F7D7CF8EB3882359F0853070
:107C300059F08091E80080FFF7CF02C081E00895FD
:107C400080E0089582E0089583E008950F931F93E4
:107C5000CF93DF9300D0CDB7DEB7E4EBF1E08091B6
:107C6000F100819381E0EC3BF807C9F71FDB8091BD
:107C7000E80083FFCBC02091B4013091B501832F80
:107C800090E08A30910508F0C1C0FC01EA5AF74C37
:107C9000E4C0223809F0BAC08091B801877080939F
:107CA000E9009091EB001092E9008091E800877F55
:107CB0008093E80095FB882780F98093F10010926B
:107CC000F10082C0822F8D7F09F0A0C0223009F020
:107CD0009DC08091B601811124C02091B801277008
:107CE00009F494C02093E9008091EB0080FF19C053
:107CF0008091EB00333011F4806211C08061809379
:107D0000EB0081E090E0022E01C0880F0A94EAF7B0
:107D10008093EA001092EA008091EB0088608093E3
:107D2000EB001092E9008091E800877F50C021119C
:107D30006DC01091B6011F770FB7F8948091E800DD
:107D4000877F8093E800C8DD8091E80080FFFCCF4A
:107D50008091E3008078812B8093E300806880939A
:107D6000E300112311F083E001C082E08EBB0FBF5E
:107D70004DC02058223008F049C0AE014F5F5F4F20
:107D80006091B8018091B6019091B7015FDD0097D5
:107D900009F43CC02091E800277F2093E800BC0153
:107DA00089819A81BCDE8091E8008B778093E8001E
:107DB0002DC0203859F58091E800877F8093E80036
:107DC0008091B2018093F1008091E8008E778093DA
:107DD000E80082DD1BC0211119C09091B6019230DC
:107DE000A8F48091E800877F8093E8009093B20127
:107DF00073DD8091B201811104C08091E30087FF9F
:107E000002C084E001C081E08EBB44DA8091E800CA
:107E100083FF0AC08091EB0080628093EB00809129
:107E2000E800877F8093E8000F900F90DF91CF915B
:107E30001F910F9108950895CF938EB3882359F021
:107E4000C091E900C7701092E9008091E80083FDBD
:107E5000FDDEC093E900CF910895EE0FFF1F05905E
:107E6000F491E02D0994F999FECF92BD81BDF89A65
:107E7000992780B50895262FF999FECF1FBA92BD94
:107E800081BD20BD0FB6F894FA9AF99A0FBE0196FB
:067E90000895F894FFCFF5
:107E96007777010000000000000818034100720017
:107EA6006400750069006E006F0020004C004C00F5
:107EB600430000002203410072006400750069005F
:107EC6006E006F0020004C0065006F006E006100C0
:107ED600720064006F0000000403090409023E00FA
:107EE600020100803209040000010202010005249B
:107EF600001001042402040524060001070582037C
:107F06000800FF09040100020A0000000705040238
:107F16001000010705830210000112011001020082
:107F26000008412336000100020100014341544587
:067F360052494E4100001B
:040000030000700089
:00000001FF